:020000040800F2
:10000000980C0020B5010008BD010008BF010008E0
:10001000C1010008C3010008C5010008000000007C
:10002000000000000000000000000000C701000800
:10003000C901000800000000CB010008CD01000844
:10004000CF010008CF010008CF010008CF01000850
:10005000CF010008CF010008CF010008CF01000840
:10006000CF010008CF010008CF010008CF01000830
:10007000CF010008CF010008CF010008CF01000820
:10008000CF010008CF0100088D020008CF01000851
:10009000CF010008CF010008CF010008CF01000800
:1000A000CF010008CF010008CF010008CF010008F0
:1000B000CF010008C1080008CF010008CF010008E7
:1000C000CF010008CF010008CF010008CF010008D0
:1000D000CF010008CF010008CF010008CF010008C0
:1000E0008D030008CF010008CF01000800F002F8DE
:1000F00000F050F814A696E8000CB244B344DA4578
:1001000001D100F047F8BAE80F000FA696E83000DA
:10011000A5EB040504EB0607AAEB0704A7F101070A
:100120004FEA15154FEA3414A4F10104AC4201D38F
:1001300000F030F813F0010F18BFFB1A43F0010371
:1001400000F001F8DBE71847001E0000201E000049
:10015000103A24BF78C878C1FAD8520724BF30C8F3
:1001600030C144BF04680C60704700007047000055
:100170000023002400250026103A28BF78C1FBD8B0
:10018000520728BF30C148BF0B6070471FB51FBD65
:1001900010B510BD00F044F81146FFF7F7FF00F06E
:1001A0000FFD00F062F803B4FFF7F2FF03BC00F0AC
:1001B00065F800000948804709480047FEE7FEE768
:1001C000FEE7FEE7FEE7FEE7FEE7FEE7FEE7FEE707
:1001D00004480549054A064B7047000059080008C5
:1001E000ED00000898060020980C002098080020D8
:1001F0009808002070477047704710B500F008F865
:10020000006810BD10B5044600F002F8046010BD8F
:100210000048704710000020004870471000002080
:100220007546FFF7F9FFAE4605006946534620F0D4
:100230000700854618B020B5FFF7CAFFBDE820408B
:100240004FF000064FF000074FF000084FF0000B92
:10025000AC46ACE8C009ACE8C009ACE8C009ACE801
:10026000C00921F007018D46704710B50446AFF371
:1002700000802046BDE81040FFF795BF01491820D7
:10028000ABBEFEE7260002007047000080B542F2D8
:100290000040C4F2010000688007002827D5FFE76E
:1002A00042F24C40C4F20100016840F27800C2F210
:1002B00000000180008801F018FB4FF62062C1F6B3
:1002C000E1724EF2FE13C3F6AF7301F039FB01F099
:1002D000AFFA40F28401C2F20001087042F200411C
:1002E000C4F20101086820F002000860FFE780BD49
:1002F00080B582B042F20842C4F20102106820F4D4
:1003000000601060106840F00200106042F210417E
:10031000C4F20101086840F00300086042F2344072
:10032000C4F201000021016042F20443C4F201035F
:10033000186840F020001860106840F0010010605C
:100340001220019000F0FEFB019800F0E3FB02B0E8
:1003500080BD000080B582B06420009000F014FCE5
:10036000009842F20842C4F201020192116841F081
:100370000101116000F008FC0199086840F4800058
:1003800008600A2000F000FC02B080BD80B540F299
:100390001440C4F2010000680005002825D5FFE7DD
:1003A00040F28000C2F20000016801310160006883
:1003B000032807D3FFE740F28001C2F200010020CA
:1003C0000860FFE700F072FC41F20C01C4F2010189
:1003D000086880F40050086040F21441C4F2010142
:1003E000086840F400600860FFE740F21440C4F27F
:1003F00001000068000400282BD5FFE740F28800C8
:10040000C2F200000168013101600068032807D3CF
:10041000FFE740F28801C2F2000100200860FFE718
:1004200040F28C01C2F200010120086000F03EFCA5
:1004300041F20C01C4F20101086880F40050086028
:1004400040F21441C4F20101086840F40040086021
:10045000FFE780BD80B582B01421C4F201010868B5
:1004600020F4704008601021C4F20101086820F4F3
:100470007040086040F20043C4F20103186840F481
:100480000060186040F20C42C4F20102106820F4CF
:100490000060106040F20841C4F20101086840F4B5
:1004A00000600860186840F400401860106820F48C
:1004B00000401060086840F4004008602820019067
:1004C000012100F03FFB019800F024FB02B080BD49
:1004D00040F60001C4F20101086844F20042C4F28F
:1004E00044421040086041F20401C4F2010108686E
:1004F00020F470000860086840F40010086041F2C1
:100500000C01C4F20101086820F40050086040F6B4
:100510000441C4F201014FF03330086040F6040199
:10052000C4F20101086820F47F200860086840F4E4
:1005300008200860086820F47F600860086840F4BC
:100540003B6008607047000080B500F001F880BD96
:1005500084B000200390029041F20001C4F2020135
:10056000086840F480300860FFE741F20000C4F200
:100570000200006800F400300290039801300390FC
:10058000FFE702990020019039B9FFE70398B0F521
:10059000A06018BF01200190FFE70198C007002864
:1005A000E3D1FFE741F20000C4F2020000688003DB
:1005B000002803D5FFE70120029002E0002002900E
:1005C000FFE70298012851D1FFE742F20001C4F28F
:1005D0000201086840F010000860086820F0070079
:1005E0000860086840F00200086041F20401C4F2AB
:1005F000020100910868086008680860086840F413
:1006000080600860086820F47C100860086840F486
:10061000E810086041F20001C4F20201086840F0ED
:1006200080700860FFE741F20000C4F20200006839
:100630008001002801D4FFE7F5E741F20401C4F28C
:100640000201086820F003000860086840F002001A
:100650000860FFE741F20400C4F20200006800F005
:100660000C00082801D0FFE7F4E700E0FFE704B042
:100670007047000080B582B000200190FFE701982C
:10068000FE2838DCFFE7019801F02FF942F61852F6
:10069000C5F2444242F2FB13C4F2190301F050F9CF
:1006A000002200924EF20003C4F26F0300F066FFD6
:1006B00000F064FE009A0023C3F6F07300F0AEFE73
:1006C000009A4CF20003C4F25F0301F039F901F023
:1006D000AFF8019A40F29201C2F2000121F8120033
:1006E000019A31F81200000221F81200FFE7019888
:1006F00001300190C3E702B080BD000082B000204D
:100700000190FFE701987E280DDCFFE7019A40F297
:100710009221C2F20001002021F81200FFE70198A7
:1007200001300190EEE77F200090FFE70098FE285F
:100730000EDCFFE7009A40F29221C2F200014FF472
:100740007F4021F81200FFE7009801300090EDE7AC
:1007500002B0704781B041F20001C4F202010868A2
:1007600040F480300860FFE741F20000C4F202006C
:1007700000688003002801D4FFE7F5E741F2040197
:10078000C4F202010091086840F4E01008600868B3
:1007900040F400400860086840F480600860086821
:1007A00040F48030086041F20001C4F202010868A0
:1007B00040F080700860FFE741F20000C4F20200E0
:1007C00000688001002801D4FFE7F5E741F2040149
:1007D000C4F20201086840F002000860FFE741F23D
:1007E0000400C4F2020000680007002801D4FFE7FB
:1007F000F5E741F20001C4F20201086820F00100AF
:100800000860FFE741F20000C4F2020000688007C0
:10081000002801D5FFE7F5E741F21801C4F2020113
:10082000086840F01C000860086840F40070086028
:10083000086840F00100086041F21C02C4F20202A4
:10084000106840F003001060086844F2040210438E
:10085000086001B07047000080B541F20002C4F2A8
:100860000202106840F00100106041F20401C4F27D
:10087000020108680023CFF6FF03184008601068E3
:100880004FF6FF73CFF6F66318401060106820F43F
:1008900080201060086820F4FE00086041F2080122
:1008A000C4F202014FF41F000860FFF74DFE4EF640
:1008B0000851CEF200014FF00060086080BD0000DA
:1008C00081B040F21040C4F200000088C007002848
:1008D00076D0FFE740F21041C4F20001088820F012
:1008E0000100088040F28000C2F200000068009021
:1008F00038B3FFE70098012804D0FFE700980228EA
:100900003ED05CE040F29040C2F20000028840F22B
:100910009241C2F2000131F8121040F60C42C4F2CA
:10092000010211600188013101800088FF2807DB86
:10093000FFE740F29041C2F2000100200880FFE78B
:100940003DE040F29000C2F20000028840F29201C5
:10095000C2F2000131F8121040F60C42C4F201025A
:1009600011600188013101800088FF2807DBFFE763
:1009700040F29001C2F2000100200880FFE71EE073
:1009800040F29020C2F20000028840F29221C2F2AE
:10099000000131F8121040F60C42C4F2010211605D
:1009A0000188013101800088FF2807DBFFE740F262
:1009B0009021C2F2000100200880FFE7FFE7FFE777
:1009C00001B0704780B582B041F21C01C4F202014F
:1009D000086840F08000086040F22841C4F200013D
:1009E0000820088040F28800C2F20000016840F24E
:1009F0000000C2F2000050F8210040F22C41C4F285
:100A00000001088040F20C41C4F20001088840F067
:100A10000100088040F20041C4F20001088840F063
:100A2000010008801D200190022100F08BF8019840
:100A300000F070F802B080BD82B000200190FFE7A6
:100A400001987E2824DCFFE7019A5000C1B240F2F1
:100A50009240C2F2000020F81210019A30F81210F1
:100A6000090220F81210019930F81100B0F5807FCA
:100A700009D1FFE7019A40F29241C2F20001FF2042
:100A800021F81200FFE7FFE7019801300190D7E756
:100A90007F200090FFE70098FE2816DCFFE7009A11
:100AA000C2F1FF00C0B2400040F29241C2F2000128
:100AB00021F81200009A31F81200000221F8120009
:100AC000FFE7009801300090E5E702B070470000B2
:100AD00043F60C01C4F20101088840F4005008807C
:100AE000088820F48050088043F61002C4F2010206
:100AF000108800F40050108043F60802C4F201028E
:100B0000108841F64C5318431080088840F00800C4
:100B10000880704781B08DF803009DF9030000281C
:100B20000ED4FFE79DF9031001F01F020120904051
:100B30004A094EF20011CEF2000141F82200FFE70F
:100B400001B0704782B08DF8070000919DF9070051
:100B500000280AD4FFE7009800019DF907104EF223
:100B60000042CEF2000288540BE0009800019DF88C
:100B7000071001F00F014EF61452CEF20002885415
:100B8000FFE702B07047000083B0029000200190A0
:100B9000FFE70198029988420FD2FFE74FF47A608D
:100BA0000090FFE70098411E009108B1FFE7F9E7C8
:100BB000FFE7019801300190EBE703B070470000B8
:100BC00080B582B000200190FFF754FDFFF734FF9D
:100BD000FFF794FDFFF7BEFDFFF77AFCFFF778FF04
:100BE000FFF7F0FEFFF736FCFFF782FBFFF7B2FBE3
:100BF000FFE740F28400C2F20000007800F068F8DD
:100C000042F24C40C4F20100006800F085FE4CF650
:100C1000CD42CCF6CC4248F6CC43C3F6457300F047
:100C20008FFE00F035FE40F29061C2F200010860D4
:100C300041F20000C4F20200006840F27401C2F206
:100C40000001086041F20400C4F20200006840F2B2
:100C50007001C2F20001086040F60C40C4F20100CD
:100C6000006840F27C01C2F20001086040F28C0092
:100C7000C2F200000068C0B1FFE740F28800C2F293
:100C80000000016840F20000C2F2000050F82100AC
:100C9000013840F22C41C4F20001088040F28C017E
:100CA000C2F2000100200860FFE7A2E740F29021B5
:100CB000C2F200010020088040F29001C2F200015F
:100CC000088040F29041C2F20001088070470000A5
:100CD00081B08DF80300FFE743F60000C4F2010085
:100CE00000880006002801D4FFE7F5E79DF803001F
:100CF00043F60401C4F201010880FFE743F6000057
:100D0000C4F2010000884006002801D4FFE7F5E79F
:100D100001B07047490050EAC12018BF04204A0DB5
:100D200018BF40F0010040F2FF72B2EB515F08BF04
:100D300040F00200012808BF052070472DE9F74F59
:100D4000144694B00021C4E902111599079121F0CD
:100D50000045C9498D4206DC1599C4E9000117B068
:100D60000020BDE8F08FC549DFF814A3A9423CDD9F
:100D70000799C44E0029C44FC44A1599534619DD3A
:100D800000F0E8FE554506D0C14AC24B00F0E2FE35
:100D9000C4E900010AE04FF0D352BE4B00F0DAFE86
:100DA00032463B4600F0D6FEC4E9000117B00120F0
:100DB000BDE8F08F00F032FB554506D0B44AB54B84
:100DC00000F02CFBC4E900010AE04FF0D352B14B14
:100DD00000F024FB32463B4600F020FBC4E9000152
:100DE00017B04FF0FF30BDE8F08FAB49A94215991D
:100DF00078DB21F0004183468846A84AA84B00F0E2
:100E00009FFD0022A74B00F009FB00F011FD0990A7
:100E100000F06BFD06460F469C4A534600F090FDDD
:100E200043465A4600F08AFE80468A46984A994BC5
:100E30003046394600F084FD2A0D01250B924246CA
:100E4000534600F07BFE032DC4E9000139D00B9816
:100E5000C1F30A51401A05EB45111139814230DACC
:100E60009148C346784400EB0510CDF80CA00C90D7
:100E7000D0E900233046394600F062FD02460B46B9
:100E8000049106905846039900F064FE80468A4615
:100E900002460B465846039900F05CFE049B069AF6
:100EA00000F058FE83460C9803913946D0E902239E
:100EB000304600F045FD5A46039B00F04BFE6D1C8A
:100EC000BDE707980028A2BF099817B0BDE8F08FCA
:100ED000616881F000416160099817B04042BDE847
:100EE000F08FFFE784461598C1F31301C0F30A5051
:100EF000A0F2F5304FEA601800F01F06C6F120009E
:100F0000139000200690079041F4801E05206D4646
:100F100076B1664A08EB00017A4452F8213002EBC0
:100F20008101B3404A68139922FA01F1194305E09F
:100F30005F4908EB0002794451F82210A1FB0E270B
:100F4000A1FB0C131A449A4234BF0123002303EB84
:100F5000070A05EB8003D3E901B70F448F4234BF82
:100F60000121002193448B4411B1934502D903E040
:100F7000934501D2012100E00021C3E901B75144AA
:100F800045F82010011EA0F10100C1DC0298059F68
:100F900000F10050800F12900298DDE903568000A6
:100FA00000F0A3FC834628460D9100F0B5FC6FF0DD
:100FB0001D0200F0EFFECDE90E01304600F0ACFC62
:100FC0006FF03D0200F0E6FE80468A46384600F0AB
:100FD000A3FC6FF05D0200F0DDFE0746424653467B
:100FE000119100F01BFADDE90E2300F017FA5A46C2
:100FF0000D9B00F013FA00250E465A4628460D9B1D
:1010000000F0A8FDDDE90E2300F0A4FD42465346A2
:1010100000F0A0FD3A46119B00F090FDDFF898A08B
:10102000244A534600F08CFC07468846234A244B4A
:101030003146284600F084FC3A46434600F0EEF97B
:10104000074688464FF0A84253463146284600F0EE
:1010500077FC3A46434600F0E1F9159A12F0004F4A
:1010600004D0129A81F0004152421292C4E9000168
:10107000129817B0BDE8F08FFB21E93F7CD9024000
:10108000FB21F93F7370032E8A19A33B00004054E3
:101090003163621A61B4D03DFB21394183C8C96D07
:1010A000305FE43F0000E03FE80F0000640F000005
:1010B000460F0000182D4454FB21F93D3326A6119C
:1010C000460B113C2DE9FF4D21F0004807460C4628
:1010D000B8F1795F08DA00F0ABFB002801BF00200F
:1010E000324904B0BDE8F08D3A4623461046194611
:1010F00000F026FC054602462D480E460B4606210A
:10110000784400F05DF82A46334600F019FCDDE92A
:10111000022382468B463846214600F011FC0446E5
:101120000F4652465B462846314600F009FC2246EF
:101130003B4600F00FFD07468A464FF0FF32284637
:10114000314600F027FE1B4A90450ADA3A465346DC
:1011500000F000FD04B00022BDE8F04D134B00F09C
:10116000EDBC154A4245A8BFA8F500154FF0000494
:10117000B8BF124D22462B4600F0ECFC06468846CE
:1011800022462B460020094900F0E4FC04460D46A7
:101190003A4653463046414600F0DCFC04B0224655
:1011A0002B46BDE8F04D00F0C9BC00000000F03F48
:1011B0001C0D00003333D33F0000E93F0000D23F55
:1011C0002DE9F0414F1E00EBC7010446D1E90001B3
:1011D00015461E4637F006020DD02A46334600F06B
:1011E000AFFB7F1E04EBC703D3E9002300F016F921
:1011F00037F00602F1D1022F25D0042F13D0062F8D
:1012000018BFBDE8F0812A46334600F099FBD4E9C7
:101210000A2300F003F92A46334600F091FBD4E993
:10122000082300F0FBF82A46334600F089FBD4E996
:10123000062300F0F3F82A46334600F081FBD4E998
:10124000042300F0EBF82A46334600F079FBD4E99A
:10125000022300F0E3F82A46334600F071FBD4E99C
:101260000023BDE8F04100F0D9B800002DE9FF4DA2
:10127000054621F0004084B00C46B0F1795F0BDAEE
:101280002846FFF747FD042808BF00F06FF82846FE
:1012900008B02146BDE8F08D2A460B46104600F006
:1012A0004FFB06460F462A46234600F049FB804680
:1012B00026488A4632463B4605217844FFF780FFA0
:1012C00083461098029160B3214A224B4046514612
:1012D00000F036FBCDE900015A4640465146029BDC
:1012E00000F02EFB82468846DDE906014FF0FF3212
:1012F00000F050FD5246434600F02CFC32463B467F
:1013000000F01EFBDDE9062300F024FCDDE90023EC
:1013100000F020FC08B02A462346BDE8F04D00F05E
:101320000DBC0B465A463046394600F009FB084AC8
:10133000084B00F073F84246534600F001FB08B03A
:101340002A462346BDE8F04D00F068B8620C000064
:10135000495555555555C5BF012200F01BBD00220A
:1013600013461046114600F009B90000024A002059
:10137000110700F00FBD000001FDFFFF00B5254B78
:1013800021F0004287B09A4203DC0022134600920B
:101390002BE0214B9A4208D140B94FF00100FEF7F3
:1013A00031FFFFF7DCFF07B000BD03DBFFF7D4FF21
:1013B00007B000BD02AAFFF7C1FC10F003014FF017
:1013C00001000DD0012914D002291AD00DF1080C0A
:1013D0009CE80F00FFF776FE07B081F0004100BDEA
:1013E0000DF1080C00909CE80F00FFF73FFF07B0DD
:1013F00000BD0DF1080C9CE80F00FFF763FE07B07D
:1014000000BD0DF1080C00909CE80F00FFF72EFFC7
:10141000E2E70000FB21E93F0000F07F10B591EA10
:10142000030F48BF83F0004300F19C83841A71EBE3
:10143000030C05D2121943EB0C03001B61EB0C01EA
:101440004FEA1154A4EB135CDFF81CE11EEA430FD2
:1014500018BF9EEA445F00F0748021EA045123EA39
:101460000E0343F48013DCF1200E32D322FA0CFE7B
:1014700010EB0E0023FA0CFE41EB0E01CCF1200E16
:1014800003FA0EFE10EB0E00CCF1200E51F100011C
:10149000B1F5801F32D201EB045112FA0EF2BDE811
:1014A000104058BF7047401C38BF5FEA420218BF67
:1014B0007047002814BF20F0010041F100014FEAFD
:1014C000410313F5001F38BF7047A1F1C04100F080
:1014D0002FBB012A43EB0302ACF1200CDCF11F0E01
:1014E00032BF4FF0000E23FA0CF310EB030041EB78
:1014F0000451B4EB115FD0D0A1EB045101F5801180
:10150000490801EB04515FEA30000ED350F10000AE
:1015100038BF12FA0EFE08D1BDE81040C9E7401CE2
:1015200038BF5FEA4202CAD1C3E7BDE810404FEAC4
:10153000410313F5001F38BF7047A1F1C04100F00F
:10154000F7BA9EEA445F08D011EA5E0FBDE810408A
:1015500004BF01F0004100207047BDE8104070B5A5
:1015600000F098FA64FBBE3E0000E0FF02494FF035
:10157000000000F0DDBB00BF0000F87F2DE9C04196
:1015800030B4DFF8A4C23CEA111418BF3CEA1314CB
:1015900000F0ED801CEA111481EA030544EAD574D9
:1015A00018BF1CEA131500F0C880A4EB050404F171
:1015B0007F7404F500344FF0004545EAC12145EA47
:1015C000C32341EA505143EA52534FEAC0204FEA45
:1015D000C222994208BF904200F09D804FEA1365F5
:1015E0000FF24416765D4FEA134506FB05F7C7F187
:1015F000807706FB07F74FEAD737A7FB03687642E9
:10160000A7FB06CEC8F5803838BFA8F1010807FB54
:1016100008E6A6FB028C4FF0000EE6FB03CEDCF1E1
:10162000000CCEF1004E38BFAEF1010EA6FB0C58F7
:101630004FF00007E6FB0E87A1FB08C6A0FB07CE14
:1016400016EB0E064FF0000545F10005E1FB0765BE
:1016500015F1E04E7EBFA4F580345FEA46066D4189
:1016600016F1800745F100054FEA172747EA05679D
:101670004FEA15254FEA0666A6F1DE46B6F1805F11
:1016800020D9384605EBC47124F0010C01EB0C1194
:10169000BCF1FE6F02D8F0BCBDE8008124425CBF03
:1016A00001F5801E9EEAC47F02D4F0BCBDE8008133
:1016B000244200F13980A1F1C041F0BCBDE80041F5
:1016C00000F036BA4FEAD02040EA41504FEAD1212B
:1016D0004FEAD22242EA43524FEAD323A7FB0286C3
:1016E00007FB036605FB02661EEA0E0F58BFA6EB5A
:1016F0000056B6EB00564FEA520E4EEAC37E18EB88
:101700000E0E56EB530EBCD518EB02085E417F1C43
:1017100055F10005B5E74FF480154FF000074FF085
:1017200000064FF00008ACE701F1C04101F00041B4
:101730004FF00000F0BCBDE800810CEA131511EA7F
:101740000C1F00D00CE013EA0C1F00F026804FF0B5
:10175000000081EA030101F00041F0BCBDE8008116
:10176000F0BCBDE8004181EA030100F0E1B9F0BC42
:10177000BDE8004170B500F08DF900BF097EFC3E68
:1017800000F007B84FF0000081EA030101F00041CA
:10179000704781EA030100F0CBB9F0BCBDE800411D
:1017A00022494FF000007047FFFDFBF9F7F5F4F216
:1017B000F0EEEDEBE9E8E6E4E3E1E0DEDDDBDAD8EC
:1017C000D7D5D4D3D1D0CFCDCCCBCAC8C7C6C5C44A
:1017D000C2C1C0BFBEBDBCBBBAB9B8B7B6B5B4B361
:1017E000B2B1B0AFAEADACABAAA9A8A8A7A6A5A44C
:1017F000A3A3A2A1A09F9F9E9D9C9C9B9A99999810
:101800009797969595949393929191908F8F8E8EB2
:101810008D8C8C8B8B8A898988888787868585843F
:1018200084838382828181800000FF070000F87F2B
:101830004FEA41034FEA5353A3F58063D3F11E03EC
:10184000C8BFD3F1210C0CDD4FF0004242EAC122A7
:1018500042EA505232FA03FC8CEAE17CACEBE170D4
:101860007047102BC4BF0020704703F5787CBCF193
:10187000FF3F04D06FF0004282EA2100704770B54C
:1018800000F008F94992248000207047F2E7000038
:101890004FEA1153A3F58063D3F11E03A8BFD3F120
:1018A000200C08DB4FF0004242EAC12252EA5052BB
:1018B00032FA03F0704709420BD4102BC4BF00204A
:1018C000704703F5787CBCF1FF3F05D04FF0FF3047
:1018D00070474FF00000704770B500F0DBF800BFB4
:1018E0004992248000207047F0E710F0004248BF82
:1018F0004042B0FA80F310FA03F10AD0C3F11D039D
:1019000003F5806302EB03524FEA415002EBD12111
:1019100070474FF000007047B0FA80F310FA03F1FF
:101920000AD0C3F11D0303F580634FEA03524FEA67
:10193000415002EBD12170474FF00000704700008A
:1019400070B5DFF848C11CEA111E1EBF1CEA131552
:101950009EEA0C0F95EA0C0F00F06F8081EA0304F9
:101960004EEAD47EAE4421EA4C1123EA4C1341F4F2
:10197000801143F48013AEF17F7EA1FB024CA0FBEB
:101980000365361955EB0C05A1FB034C4CF1000324
:10199000A0FB021C16EB0C06654153F10003094243
:1019A00018BF46F0010613F4007F0BD14FEA033154
:1019B0004FEA053041EA155140EA165034036FF002
:1019C00003020AE04FEAC3214FEAC52041EA55511C
:1019D00040EA5650F4026FF0020202EB2E4201EB95
:1019E000025585EACE710AD05FEA440C18BF24F094
:1019F000004450F1000041F1000120EAD47040F2AF
:101A0000FE7C624500D270BDA84214BF4FF08044F6
:101A10004FF04044002E08BF0024BEF1806FA8BFE5
:101A2000A1F1C041BDE8704080F2828001F1C04167
:101A300001F000414FF0000070470CEA13159EEAD8
:101A40000C0F18BF95EA0C0F06D081EA030E4FF079
:101A500000000EF0004170BD00F01CF88900013E4E
:101A600000F007B800F009B84FEA430C5FEA5C5C8D
:101A700008D081EA030100F05BB84FEA410C5FEA4D
:101A80005C5CF6D102494FF0000070470000FF0790
:101A90000000F87F0EF1020E2EF0030E5EF8046BCC
:101AA000364205D4012A43EB030515F5001F12D871
:101AB000012841EB010C1CF5001F0CD80ED14FEA98
:101AC000D17C0CEB4C0C0CF1020C15F5001F08BF7F
:101AD0004CEBD37C04E04FF0080C01E04FEAD37CE0
:101AE0000CEB4C0526FA05F606F00706B6F1040CD9
:101AF00006D20EEB860CBDE870404CF0010C60473E
:101B0000DFE80CF0090B02024FF00041A1F50021C3
:101B10004FF0000070BD19461046012851EB01043A
:101B200018BFD4F5001484BF002001F0004170BD3F
:101B30000808A0F500114FEA3101704710B591EA8D
:101B4000030F81F000413FF571AC83F0004300F0DA
:101B500009B8000010B591EA030F48BF83F00043B5
:101B60003FF564AC841A71EB030C07D28CF0004C87
:101B7000121943EB0C03001B61EB0C014FEA1154EB
:101B8000A4EB135CDFF8A4E11EEA430F18BF9EEA42
:101B9000445F00F0B48021EA045123EA6E0352420C
:101BA000C3EB6E0338BF5B1EDCF1200E25D322FA97
:101BB0000CFE10EB0E0043FA0CFE41EB0E01CCF1D3
:101BC000200E03FA0EFE10EB0E00CCF1200E51F1A8
:101BD000000129D401EB045112FA0EF2BDE81040C5
:101BE00058BF7047401C1CBFB2F1004F704700281F
:101BF0000CBF491C20F00100704712EB020E43EBB2
:101C0000030218BF4FF0010E4EEA4202ACF1200C65
:101C1000DCF11E0E56D943FA0CFE10EB0E00CCF18F
:101C20001E0E51F1FF31D5D50EF1010E12FA0EFE46
:101C3000404141EB010101EB445C5FEA5C5C10D97F
:101C400001EB045110EBDE7038BFBEF1004FBDE870
:101C5000104018BF704700280CBF491C20F001003D
:101C6000704734D24FEAD42C24F4006411F50011EB
:101C70001BD0B1FA81F20B3AA41AA41ED2F12003B0
:101C8000914030FA03F31943904001EBCC7101EB22
:101C90000451002CBDE81040A8BF704701F1C041BD
:101CA00001F000414FF000007047B0FA80F310FAE5
:101CB00003F102D1BDE810407047E41A173C480513
:101CC000C90AE2E701EB0451BDE810407047491032
:101CD0004FEA300001EB0451BDE8104002E04FF044
:101CE000000170474A0008BF0042F8D0B2F5001F5B
:101CF00028BF704701F000414FF0000070479EEA96
:101D0000445F07D011EA5E0FBDE8104004BF002118
:101D100000207047BDE8104070B5FFF7BBFE00BF64
:101D200040DFF63E104683F0004170470000E0FFC0
:101D30000CF00F03092B08BF082000F059800A2B74
:101D40000BD0082B18BF704708BF1CF0400F0AD0FB
:101D50004FF000004FF0000170471CF0400F18BF1B
:101D60004FF0004070471CF0100F08D000F07F4289
:101D700020F0704342EAD3014FEA4370704700F00D
:101D8000604021F07F4242EA000201F07F4040EAD9
:101D9000727070474FF0FF0C4CF4E06C1CEA11536A
:101DA0001CBF9CEA030C9445C2BFDA4201EB02510E
:101DB0007047002B0DD0BCF1000F0FD001F0004197
:101DC000002AA4BF41F0E04141F07F614FF00000E4
:101DD000704701F000414FF00000704750EA0133B6
:101DE0004FF09B0C18BF4CF0806C7FF4BFAB70477A
:101DF0001CF4801F11D01CF4E02F03D06FEACC310B
:101E0000490070474FF04050EFF3008222F07042DB
:101E100042EA000282F3008870474FF000007047EA
:101E20004C5555555555A53F7751C1166CC156BFF8
:101E30009015CB19A001FA3EAD529C804F7E92BE08
:101E4000C4B1B4BD9EEE213ED43888BEE9FAA8BD27
:101E500000004054FB21F93F3163621A61B4D03D68
:101E60000000601A61B4D03D7370032E8A19A33B41
:101E70000000002E8A19A33BC14920259A837B3993
:101E800000000000000000006E83F9A22915444EF6
:101E9000D15727FCC0DD34F5999562DB4190433C76
:101EA000AB6351FE61C5BBDE3A6E24B7E0D24D4252
:101EB000EA2E49061C92D1091CEB1DFE3EA729B152
:101EC000F53582E88444BB2E26709CE9417E5FB4E0
:101ED00039D69139F43953838B5F849C3B28F9BD03
:101EE000FF97F81F0F9805DE8B112FEF1F6D0A5A11
:101EF000CF7E366DB709CB27663F464F2DEA5F9EF2
:101F0000C7BA27757BF1E5EBF739073DEA92528AAC
:101F1000B15FFB6B085D8D1F46300356000000006B
:101F2000A6F810111111813FD561C119A0012ABF76
:101F30007DFEB157E31DC73EEB9C2B8AE6E55ABEFA
:101F40007CD5CF5A3AD9E53D681F00080000002033
:101F50000C00000050010008741F00081000002051
:101F6000880C00007001000860EA00003075000075
:041F700088130000D2
:04000005080001B539
:00000001FF
