:020000040800F2
:10000000B006002099010008A1010008A301000822
:10001000A5010008A7010008A901000800000000D0
:10002000000000000000000000000000AB0100081C
:10003000AD01000800000000AF010008550F0008E6
:10004000B3010008B3010008B3010008B3010008C0
:10005000B3010008B30100081503000859030008A4
:10006000B3010008B3010008B3010008B3010008A0
:10007000B3010008B3010008B3010008B301000890
:10008000B3010008B3010008B3010008B301000880
:10009000B3010008B3010008B3010008B301000870
:1000A000B3010008B3010008B3010008B301000860
:1000B000DD0F0008CD100008B3010008B3010008EF
:1000C000B3010008B3010008B3010008B301000840
:1000D000B3010008B3010008B3010008B301000830
:1000E000B3010008B3010008B301000800F002F8F2
:1000F00000F042F814A696E8000CB244B344DA4586
:1001000001D100F039F8BAE80F000FA696E83000E8
:10011000A5EB040504EB0607AAEB0704A7F101070A
:100120004FEA15154FEA3414A4F10104AC4201D38F
:1001300000F022F813F0010F18BFFB1A43F001037F
:1001400000F001F8DBE71847C0220000D0220000D1
:10015000704700000023002400250026103A28BF25
:1001600078C1FBD8520728BF30C148BF0B60704729
:100170001FB51FBD10B510BD00F064F81146FFF7A4
:10018000F7FF01F0BBF800F082F803B4FFF7F2FFCD
:1001900003BC00F085F80000094880470948004783
:1001A000FEE7FEE7FEE7FEE7FEE7FEE7FEE7FEE727
:1001B000FEE7FEE704480549054A064B7047000084
:1001C000750F0008ED000008B0000020B006002008
:1001D000B0020020B002002010B5431C02E010F86D
:1001E000011B71B18107FAD14FF0013202C88C1A9C
:1001F0008C4314EAC211F9D0C01A0A0603D0C01EFB
:1002000010BDC01A10BD0A0401D0801E10BD090225
:10021000FCD0401E10BD70477047704710B500F00D
:1002200009F8006810BD10B5044600F003F804603A
:1002300010BD0000004870470000002000487047D3
:10024000000000207546FFF7F9FFAE46050069463D
:10025000534620F00700854618B020B5FFF7AAFFE7
:10026000BDE820404FF000064FF000074FF00008B7
:100270004FF0000BAC46ACE8C009ACE8C009ACE8F4
:10028000C009ACE8C00921F007018D46704710B5E0
:100290000446AFF300802046BDE81040FFF775BF6D
:1002A00001491820ABBEFEE726000200704700009F
:1002B00081B00090009840F2A001C2F200010860F5
:1002C0004EF21401CEF2000142F2273008604EF2E5
:1002D0001801CEF20001002008604EF21001CEF2AB
:1002E0000001086840F002000860086840F0010062
:1002F0000860FFE740F2A000C2F20000006808B109
:10030000FFE7F7E74EF21001CEF20001002008608F
:1003100001B0704740F21440C4F201000068C00709
:10032000C0B1FFE740F26000C2F20000007802288E
:1003300007D0FFE740F26001C2F20001022008701E
:10034000FFE740F21441C4F20101086840F00100E7
:100350000860FFE77047000080B598B040F2144095
:10036000C4F2010000688007002840F19581FFE792
:1003700040F26102C2F2000204923B200621039186
:1003800000F0D4FC039940F28802C2F20002069207
:10039000432000F0CBFC04980278417841EA022126
:1003A000ADF85E108278C17841EA0221ADF85C10A8
:1003B0000179407940EA0120ADF85A00BDF95E00AC
:1003C00001F0B2FE01F0F8FD00220E920023C4F20B
:1003D000D003059301F010F901F028F840F268010C
:1003E000C2F2000108910860BDF95C0001F09CFEBA
:1003F00001F0E2FD059B0E9A01F0FEF801F016F8FF
:1004000040F26C01C2F2000109910860BDF95A0086
:1004100001F08AFE01F0D0FD059B0E9A01F0ECF888
:1004200001F004F8014640F27000C2F200000C90A6
:100430000160006801F0C0FD49F69A12C9F69912F0
:1004400049F69913CBF6C97301F022F800F0EEFFDC
:100450000C9A0146069811600278417841EA02211F
:10046000ADF858108278C17841EA0221ADF85610F3
:100470000179407940EA0120ADF85400BDF95800F7
:1004800001F052FE01F098FD0E9A46F20003C4F20C
:100490005003079301F0B0F800F0C8FF40F280016C
:1004A000C2F200010F910860BDF9560001F03CFE58
:1004B00001F082FD079B0E9A01F09EF800F0B6FF56
:1004C00040F28401C2F2000110910860BDF95400AD
:1004D00001F02AFE01F070FD079B0E9A01F08CF8E6
:1004E00000F0A4FF08990246099840F29003C2F276
:1004F000000313931A6009680A910168084601F025
:100500002BFE0A990B90084601F026FE0B9901F08C
:100510007FFD01460C980D910168084601F01CFE14
:100520000D9901F075FD01F047FD00F059FF0E9A9D
:100530000023C4F2590301F06DFA00F077FF0F9920
:100540000246109840F2A403C2F200031A60096840
:1005500011910168084601F0FFFD119912900846BB
:1005600001F0FAFD129901F053FD01461398149120
:100570000168084601F0F0FD149901F049FD01F011
:100580001BFD00F02DFF00F051FF40F2A801C2F268
:100590000001086040F26000C2F20000007801280B
:1005A00063D0FFE700200821029100F0E7FA42F251
:1005B000F430C0F6000000F04BFB0299012000F07F
:1005C000DDFA42F2FF30C0F6000000F041FB00F01F
:1005D00015FEB8B1FFE740F26000C2F200000078FB
:1005E000022807D0FFE740F26001C2F200010120BB
:1005F0000870FFE740F27C01C2F200014FF49670F0
:100600000860FFE740F29400C2F20000006840B1C9
:10061000FFE740F29C01C2F2000108680530086063
:10062000FFE700F0EBFDF8B9FFE740F29C00C2F2F3
:1006300000000068B0F57A7F16DDFFE740F29C010C
:10064000C2F200010020086040F29401C2F20001F1
:10065000086040F27401C2F20001086040F27801C3
:10066000C2F200010860FFE715E0002008210191B7
:1006700000F084FA42F2F630C0F6000000F0E8FA2A
:100680000199012000F07AFA42F2F830C0F6000039
:1006900000F0DEFAFFE7FFE740F21441C4F2010187
:1006A000086840F00200086018B080BD41F21801EF
:1006B000C4F20201086840F00500086040F600013D
:1006C000C4F20101086820F0FF000860086840F0EB
:1006D0004800086040F60C01C4F20101086820F0EF
:1006E000010008600821C4F20101086820F00F0031
:1006F0000860086820F0F000086040F20041C4F291
:100700000101086840F00300086040F20441C4F2AF
:1007100001010020086040F20841C4F201010868AC
:1007200020F00300086040F20C41C4F201010868A7
:1007300040F003000860704780B582B00720019048
:1007400000F006FD41F21C01C4F20201086840F00D
:100750008050086047F20001C4F20001086840F0D0
:100760000400086047F20402C4F20002106840F47A
:10077000807010604EF61052CEF20002106840F009
:1007800004001060086820F002000860086840F06B
:100790000100086030BF00F079FB019800F0F4FC24
:1007A00002B080BD41F21C01C4F20201086840F4AD
:1007B0000010086041F21801C4F20201086840F01C
:1007C00008000860086840F00100086040F6004139
:1007D000C4F20101086820F07F400860086840F01A
:1007E0007F40086040F60C41C4F20101086840F007
:1007F000C000086045F20441C4F2000124200880D2
:1008000045F20842C4F20002108840F02C0010802B
:1008100045F21C42C4F20002108800F470401080BF
:10082000108840F400401080108840F03C00108098
:1008300045F22042C4F2000225201080088840F4CE
:100840008060088045F20041C4F20001088840F051
:1008500001000880088840F480600880704700002C
:1008600080B584B08DF80F008DF80E10029200F064
:10087000F9F800F081F89DF80F004000013045F2D2
:100880001041C4F200010880FFE745F21440C4F2B1
:10089000000000888007002801D4FFE7F5E745F253
:1008A0001440C4F20000008845F21840C4F2000071
:1008B000008800208DF80700FFE79DF807009DF8ED
:1008C0000E10013988421BDAFFE7FFE745F21440BA
:1008D000C4F2000000884006002801D4FFE7F5E7D5
:1008E00045F21040C4F20000008802999DF80720EC
:1008F0008854FFE79DF8070001308DF80700DCE71A
:1009000000F0A6F800F04CF8FFE745F21440C4F2FE
:10091000000000884006002801D4FFE7F5E745F213
:100920001040C4F20000008802999DF80720885406
:1009300004B080BD81B08DF803009DF8030045F23E
:100940001041C4F200010880FFE745F21440C4F2F0
:10095000000000888007002801D4FFE7F5E745F292
:100960001440C4F20000008845F21840C4F20000B0
:10097000008801B07047000045F20041C4F2000158
:10098000088840F480700880FFE745F21440C4F204
:1009900000000088C00708B9FFE7F6E770470000CD
:1009A00045F20041C4F20001088840F4007008805C
:1009B0007047000081B08DF80300FFE745F2144056
:1009C000C4F2000000880006002801D4FFE7F5E724
:1009D0009DF8030045F21041C4F200010880FFE7D2
:1009E00045F21440C4F2000000884007002801D4FA
:1009F000FFE7F5E701B0704780B584B08DF80F00D0
:100A000002918DF80720FFF7B7FF9DF80F00400017
:100A1000C0B2FFF78FFF00208DF80600FFE79DF8BA
:100A200006009DF8071088420DDAFFE702989DF84E
:100A30000610405CFFF7BEFFFFE79DF8060001309F
:100A40008DF80600EBE7FFF7ABFF04B080BD0000B8
:100A500045F20041C4F20001088820F4806008805B
:100A60007047000045F20041C4F20001088840F4DC
:100A7000806008807047000080B582B08DF8070064
:100A80008DF806108DF80520FFF776FF9DF807001A
:100A90004000C0B2FFF74EFF9DF80600FFF78AFF47
:100AA0009DF80500FFF786FFFFF77AFF02B080BDD3
:100AB00080B586B01C2001900221029100F07CFBE1
:100AC000019800F061FB02991D20039000F074FB77
:100AD000039800F059FB07200490012100F06CFB03
:100AE000049800F051FB06200590002100F064FB03
:100AF000059800F049FB06B080BD000080B582B0CB
:100B000000210191084600F039F842F2E130C0F6C8
:100B1000000000F09DF80199012000F02FF842F24A
:100B2000EB30C0F6000000F093F802B080BD00008A
:100B300080B5012000F042F80220FFF7B9FB80BD2C
:100B400080B582B032200190FFF7B2FB332000F075
:100B500035F8019800F032F8282000F02FF80C202A
:100B600000F02CF8062000F029F8012000F026F80B
:100B70000220FFF79DFB02B080BD000080B582B06F
:100B80008DF807008DF806109DF8070038B9FFE7CB
:100B90009DF806008030C0B200F010F80CE09DF81F
:100BA0000700012807D1FFE79DF80600C030C0B25A
:100BB00000F004F8FFE7FFE702B080BD80B582B027
:100BC0008DF807009DF8070000F0F00004308DF864
:100BD00003009DF8070000F0F0008DF804009DF878
:100BE0000700000104308DF805009DF807000001A2
:100BF0008DF8060027200DF103010422FFF7FCFE0B
:100C000002B080BD80B582B08DF807009DF8070066
:100C100000F0F00005308DF803009DF8070000F0AB
:100C2000F00001308DF804009DF807000001053048
:100C30008DF805009DF80700000101308DF80600D1
:100C400027200DF103010422FFF7D6FE02B080BD7C
:100C500080B584B0039000208DF80B00FFE79DF86D
:100C60000B0001900398FFF7B7FA014601988842FC
:100C70000DD2FFE703989DF80B10405CFFF7C2FF11
:100C8000FFE79DF80B0001308DF80B00E7E704B09B
:100C900080BD000041F21801C4F20201086840F072
:100CA0001400086041F20401C4F20101086820F454
:100CB00070000860086840F44010086040F60001C9
:100CC000C4F20101086820F470600860086840F40C
:100CD000407008607047000080B582B068200090C6
:100CE00019210422FFF7C8FE00981A210522FFF7F8
:100CF000C3FE00981B210822FFF7BEFE00981C21AE
:100D00000022FFF7B9FE009837218022FFF7B4FEDA
:100D10000098382101220192FFF7AEFE0098019A57
:100D20006B21FFF7A9FE02B080BD000080B582B044
:100D30008DF807008DF806100092FFF71DFED020F9
:100D4000FFF7F8FD9DF80700FFF734FE009A6820D2
:100D50000621FFF785FDFFF723FE02B080BD0000EE
:100D600080B500F001F880BD84B0002003900290AF
:100D700041F20001C4F20201086840F480300860CA
:100D8000FFE741F20000C4F20200006800F4003006
:100D90000290039801300390FFE702990020019030
:100DA00039B9FFE70398B0F5A06018BF01200190A2
:100DB000FFE70198C0070028E3D1FFE741F20000F8
:100DC000C4F2020000688003002803D5FFE7012079
:100DD000029002E000200290FFE70298012851D122
:100DE000FFE742F20001C4F20201086840F010007F
:100DF0000860086820F007000860086840F00200FA
:100E0000086041F20401C4F2020100910868086020
:100E100008680860086840F480600860086820F48A
:100E20007C100860086840F4E810086041F2000196
:100E3000C4F20201086840F080700860FFE741F2E8
:100E40000000C4F2020000688001002801D4FFE71E
:100E5000F5E741F20401C4F20201086820F0030042
:100E60000860086840F002000860FFE741F20400F3
:100E7000C4F20200006800F00C00082801D0FFE76F
:100E8000F4E700E0FFE704B07047000081B041F2F2
:100E90000001C4F20201086840F480300860FFE7F6
:100EA00041F20000C4F2020000688003002801D46F
:100EB000FFE7F5E741F20401C4F20201009108687E
:100EC00040F4E0100860086840F4004008600868DA
:100ED00040F480600860086840F48030086041F2A7
:100EE0000001C4F20201086840F080700860FFE76A
:100EF00041F20000C4F2020000688001002801D421
:100F0000FFE7F5E741F20401C4F20201086840F08E
:100F100002000860FFE741F20400C4F2020000682A
:100F20000007002801D4FFE7F5E741F20001C4F211
:100F30000201086820F001000860FFE741F20000AC
:100F4000C4F2020000688007002801D5FFE7F5E73A
:100F500001B0704740F2A000C2F20000006840B14A
:100F6000FFE740F2A001C2F2000108680138086002
:100F7000FFE7704780B541F20002C4F20202106838
:100F800040F00100106041F20401C4F2020108685F
:100F90000023CFF6FF031840086010684FF6FF7378
:100FA000CFF6F66318401060106820F480201060BF
:100FB000086820F4FE00086041F20801C4F2020152
:100FC0004FF41F000860FFF7CBFE4EF60851CEF23B
:100FD00000014FF00060086080BD00001020C4F2E6
:100FE00000000088C00780B1FFE740F60C01C4F2A2
:100FF0000101086880F0040008601021C4F20001BB
:10100000088820F001000880FFE7704781B08DF864
:1010100003009DF8030078B9FFE74FF0804108888E
:1010200020F00100088040F60C01C4F201010868BC
:1010300020F00400086006E04FF08041088840F08E
:1010400001000880FFE701B07047000081B0ADF8F3
:101050000200ADF8001041F21C01C4F20201086860
:1010600040F001000860BDF8020001382821C4F2F8
:1010700000010880BDF8000001382C21C4F20001F5
:1010800008800C21C4F20001088840F001000880AB
:1010900001B0704781B08DF803009DF8030048B996
:1010A000FFE740F20041C4F20001088820F001008F
:1010B000088008E040F20041C4F20001088840F0D6
:1010C00001000880FFE701B07047000040F21040C7
:1010D000C4F200000088C00788B1FFE741F20C01AC
:1010E000C4F20101086880F40050086040F2104129
:1010F000C4F20001088820F001000880FFE7704773
:1011000081B0ADF80200ADF8001041F21C01C4F24C
:101110000201086840F002000860BDF802000138D2
:1011200040F22841C4F200010880BDF800000138F7
:1011300040F22C41C4F20001088040F20C41C4F29C
:101140000001088840F00100088001B070470000ED
:1011500081B08DF803009DF90300002812D4FFE749
:101160009DF9031001F01F02012090404A094EF240
:101170008011CEF2000141F82200BFF34F8FBFF380
:101180006F8FFFE701B0704781B08DF803009DF9C4
:10119000030000280ED4FFE79DF9031001F01F02A1
:1011A000012090404A094EF20011CEF2000141F8B0
:1011B0002200FFE701B0704782B08DF80700009170
:1011C0009DF9070000280AD4FFE7009800019DF967
:1011D00007104EF20042CEF2000288540BE0009855
:1011E00000019DF8071001F00F014EF61452CEF2E7
:1011F00000028854FFE702B07047000080B582B05B
:1012000040F29800C2F20000006818B9FFE7002021
:10121000019070E040F2A400C2F20000006800F00B
:10122000CBFE00220023C4F2390300F061FF38B97D
:10123000FFE740F29401C2F2000164200860FFE77A
:1012400040F29400C2F200000068002850D0FFE78E
:1012500040F2A400C2F20000006800F0ADFE0022DF
:101260004CF20003C4F2620300F050FF38B9FFE70C
:1012700040F27401C2F2000196200860FFE740F2DC
:10128000A800C2F20000006800F096FE00224EF2B4
:101290000003C4F2850300F039FF38B9FFE740F2DC
:1012A0007801C2F20001C8200860FFE740F2740034
:1012B000C2F200000068D0B1FFE740F27800C2F24D
:1012C0000000006898B1FFE740F29401C2F200010B
:1012D0000020086040F27401C2F20001086040F290
:1012E0007801C2F2000108600120019003E0FFE7ED
:1012F00000200190FFE7019802B080BD80B584B066
:1013000000200390FFF7C2FDFFF7C4FC4FF4E1504B
:1013100001904FF47A71FFF799FE019841F28831FC
:10132000FFF7EEFE01200290FFF7B4FEFFF73AFA56
:10133000FFF706FCFFF7FCFBFFF7E0FBFFF7CCFC39
:10134000FFF7B4F9029840F29801C2F20001086078
:10135000FFF7AEFBFFE740F26000C2F2000000784A
:10136000022813D1FFE701200821FFF707FC42F212
:10137000DA30C0F60000FFF76BFCFFF7DDF940F252
:101380006001C2F2000100200870FFE740F2600037
:10139000C2F20000007838B9FFE740F27C01C2F2E7
:1013A0000001002008601AE040F26000C2F2000074
:1013B0000078012812D1FFE70120FFF727FEFFE7A1
:1013C00040F26000C2F200000078022804D1FFE77A
:1013D0000020FFF71BFE00E0F2E7FFE7FFE7BAE7B8
:1013E0002DE9F04106460F4600F012FC041E0D46A2
:1013F00018BF0120284320F00040C0F17F6000F1B9
:10140000E040C00F0ED0301C18BF0120384320F040
:101410000040C0F17F6000F1E040C00F04BF012038
:10142000FEF701FF20462946BDE8F08121F0004289
:1014300001F00043A2F16052B2F5801F28BFD2F143
:101440007F6C0BD95FEA001C43EAC20242EB50708A
:1014500018BF704728BF20F001007047B2F5801F09
:10146000BCBF184670474FEA410C1CF5001F02D262
:10147000084600F038BF70B500F076FB0000008928
:10148000FFF7F6BF4FF00040A0F580007047000066
:1014900010B591EA030F48BF83F0004300F1A68422
:1014A000841A71EB030C05D2121943EB0C03001BD9
:1014B00061EB0C014FEA1154A4EB135CDFF81CE163
:1014C0001EEA430F18BF9EEA445F00F0748021EAD1
:1014D000045123EA0E0343F48013DCF1200E32D3CF
:1014E00022FA0CFE10EB0E0023FA0CFE41EB0E016B
:1014F000CCF1200E03FA0EFE10EB0E00CCF1200E04
:1015000051F10001B1F5801F32D201EB045112FA02
:101510000EF2BDE8104058BF7047401C38BF5FEA6C
:10152000420218BF7047002814BF20F0010041F1AB
:1015300000014FEA410313F5001F38BF7047A1F1C6
:10154000C04100F05FBB012A43EB0302ACF1200C69
:10155000DCF11F0E32BF4FF0000E23FA0CF310EB3C
:10156000030041EB0451B4EB115FD0D0A1EB045167
:1015700001F58011490801EB04515FEA30000ED3F8
:1015800050F1000038BF12FA0EFE08D1BDE810403D
:10159000C9E7401C38BF5FEA4202CAD1C3E7BDE8D1
:1015A00010404FEA410313F5001F38BF7047A1F107
:1015B000C04100F027BB9EEA445F08D011EA5E0FED
:1015C000BDE8104004BF01F0004100207047BDE8B5
:1015D000104070B500F0C8FA64FBBE3E0000E0FFAA
:1015E000491058BFC1F140415B1058BFC3F140439F
:1015F0008B42EFF3008070472DE9C04130B4DFF833
:10160000A4C23CEA111418BF3CEA131400F0ED80A8
:101610001CEA111481EA030544EAD57418BF1CEAD8
:10162000131500F0C880A4EB050404F17F7404F5E1
:1016300000344FF0004545EAC12145EAC32341EAA1
:10164000505143EA52534FEAC0204FEAC222994216
:1016500008BF904200F09D804FEA13650FF24416D8
:10166000765D4FEA134506FB05F7C7F1807706FB69
:1016700007F74FEAD737A7FB03687642A7FB06CEEA
:10168000C8F5803838BFA8F1010807FB08E6A6FBBB
:10169000028C4FF0000EE6FB03CEDCF1000CCEF125
:1016A000004E38BFAEF1010EA6FB0C584FF00007FC
:1016B000E6FB0E87A1FB08C6A0FB07CE16EB0E06C5
:1016C0004FF0000545F10005E1FB076515F1E04E1F
:1016D0007EBFA4F580345FEA46066D4116F18007AF
:1016E00045F100054FEA172747EA05674FEA152538
:1016F0004FEA0666A6F1DE46B6F1805F20D938468D
:1017000005EBC47124F0010C01EB0C11BCF1FE6F70
:1017100002D8F0BCBDE8008124425CBF01F5801E08
:101720009EEAC47F02D4F0BCBDE80081244200F1EF
:101730003980A1F1C041F0BCBDE8004100F062BABF
:101740004FEAD02040EA41504FEAD1214FEAD2225D
:1017500042EA43524FEAD323A7FB028607FB036604
:1017600005FB02661EEA0E0F58BFA6EB0056B6EB4D
:1017700000564FEA520E4EEAC37E18EB0E0E56EBA1
:10178000530EBCD518EB02085E417F1C55F10005D5
:10179000B5E74FF480154FF000074FF000064FF00B
:1017A0000008ACE701F1C04101F000414FF000003A
:1017B000F0BCBDE800810CEA131511EA0C1F00D043
:1017C0000CE013EA0C1F00F026804FF0000081EAC5
:1017D000030101F00041F0BCBDE80081F0BCBDE8B0
:1017E000004181EA030100F00DBAF0BCBDE8004100
:1017F00070B500F0B9F900BF097EFC3E00F007B8F3
:101800004FF0000081EA030101F00041704781EAD6
:10181000030100F0F7B9F0BCBDE8004122494FF0E8
:1018200000007047FFFDFBF9F7F5F4F2F0EEEDEB89
:10183000E9E8E6E4E3E1E0DEDDDBDAD8D7D5D4D3CE
:10184000D1D0CFCDCCCBCAC8C7C6C5C4C2C1C0BF1A
:10185000BEBDBCBBBAB9B8B7B6B5B4B3B2B1B0AF20
:10186000AEADACABAAA9A8A8A7A6A5A4A3A3A2A104
:10187000A09F9F9E9D9C9C9B9A99999897979695BF
:1018800095949393929191908F8F8E8E8D8C8C8B5B
:101890008B8A8989888887878685858484838382E3
:1018A000828181800000FF070000F87F51EA030C6D
:1018B00017D41CF5801F58BFBCF5801F00F10680AF
:1018C000994218BF704708BF9042704707D711F57B
:1018D000801F58BF13F5801F19D499427047894261
:1018E00070471CF5801F08D5BCF5801FF7D58B42CB
:1018F00018BF704708BF824270474FF4001C1CEBB2
:10190000410F38BF1CEB430F01D28B42704770B5BB
:1019100000F02AF9922449004FF000514FF0805313
:10192000FFF75EBE51EA030C17D41CF5801F58BFA9
:10193000BCF5801F00F10680994218BF704708BFB0
:101940009042704707D711F5801F58BF13F5801FCD
:1019500019D499427047894270471CF5801F08D5F9
:10196000BCF5801FF7D58B4218BF704708BF824275
:1019700070474FF4001C1CEB410F38BF1CEB430FAA
:1019800001D28B42704770B500F0EEF89224490006
:101990004FF080514FF00053FFF722BE51EA030C85
:1019A00017D41CF5801F58BFBCF5801F00F10680BE
:1019B000994218BF704708BF9042704707D711F58A
:1019C000801F58BF13F5801F19D499427047894270
:1019D00070471CF5801F08D5BCF5801FF7D58B42DA
:1019E00018BF704708BF824270474FF4001C1CEBC1
:1019F000410F38BF1CEB430F01D28B42704770B5CB
:101A000000F0B2F8922449004FF000514FF080539B
:101A1000FFF7E6BD70B5DFF848C11CEA111E1EBF16
:101A20001CEA13159EEA0C0F95EA0C0F00F06F806C
:101A300081EA03044EEAD47EAE4421EA4C1123EA43
:101A40004C1341F4801143F48013AEF17F7EA1FB6F
:101A5000024CA0FB0365361955EB0C05A1FB034CAA
:101A60004CF10003A0FB021C16EB0C06654153F180
:101A70000003094218BF46F0010613F4007F0BD1A2
:101A80004FEA03314FEA053041EA155140EA16505A
:101A900034036FF003020AE04FEAC3214FEAC52086
:101AA00041EA555140EA5650F4026FF0020202EB4F
:101AB0002E4201EB025585EACE710AD05FEA440C52
:101AC00018BF24F0004450F1000041F1000120EA69
:101AD000D47040F2FE7C624500D270BDA84214BFB3
:101AE0004FF080444FF04044002E08BF0024BEF168
:101AF000806FA8BFA1F1C041BDE8704080F2828034
:101B000001F1C04101F000414FF0000070470CEAC4
:101B100013159EEA0C0F18BF95EA0C0F06D081EA48
:101B2000030E4FF000000EF0004170BD00F01CF8F5
:101B30008900013E00F007B800F009B84FEA430CF5
:101B40005FEA5C5C08D081EA030100F05BB84FEA11
:101B5000410C5FEA5C5CF6D102494FF0000070472F
:101B60000000FF070000F87F0EF1020E2EF0030EBA
:101B70005EF8046B364205D4012A43EB030515F5E4
:101B8000001F12D8012841EB010C1CF5001F0CD8D6
:101B90000ED14FEAD17C0CEB4C0C0CF1020C15F57C
:101BA000001F08BF4CEBD37C04E04FF0080C01E0B1
:101BB0004FEAD37C0CEB4C0526FA05F606F0070637
:101BC000B6F1040C06D20EEB860CBDE870404CF06A
:101BD000010C6047DFE80CF0090B02024FF00041F6
:101BE000A1F500214FF0000070BD194610460128F4
:101BF00051EB010418BFD4F5001484BF002001F09C
:101C0000004170BD0808A0F500114FEA310170478E
:101C10002DE9F04101F5801CBCF5001FC0F2C38026
:101C20004FEA115C21EA0C5141F480110CF1FD0CDA
:101C30005FEA5C0C0CF5C07C01D34000494189028D
:101C400041EA905187023BA48E0EA45D0A0C04FB6E
:101C500004F602FB06F6C6F14046A4FB0662F60D4A
:101C600046EA422606FB06F4A4FB01235242C3F1D6
:101C7000404338BF5B1EA6FB02420024E6FB032460
:101C8000D20B42EA4446A6FB0623A1FB02E2A3FBD9
:101C900007E4A4184FF0000252F10002E3FB0142F6
:101CA0006442C2F1404E38BFAEF1010EA6FB0423E0
:101CB0004FF00002E6FB0E32A2FB0346B6194FF0CE
:101CC000000454F10004E2FB0264A1FB06E6A4FB5D
:101CD00007E816EB08064FF0000858F10008E4FB8F
:101CE00001687642C8F1405838BFA8F10108A2FB4C
:101CF00006E4A3FB08E52D194FF0000454F100049D
:101D0000E2FB0854A1FB05E6A7FB04E818EB060874
:101D10004FF0000656F10006E1FB048618F120059D
:101D200056F10006A80940EA8660B109A8F11B082F
:101D300008F03F08B8F10A0F1CD901EB0C51BDE8BF
:101D4000F08100BFFCF5EEE8E2DDD8D3CFCBC7C30E
:101D5000C0BDB9B6B4B1AEACA9A7A5A3A19F9D9BC8
:101D60009A9896959392908F8D8C8B89888786858B
:101D700084838281A0FB006800FB01F208EB42082B
:101D8000B8EB872807D5341858EB0104D5D5401C8B
:101D900051F10001D1E7341A78EB0104CDD4401E93
:101DA00071F10001C9E75FEA4C0C5FEA9C5C0DD160
:101DB00005D301F000414FF00000BDE8F081BDE81F
:101DC000F04170B5FFF7D0FE6DDBFFBEBDE8F0411E
:101DD00001494FF0000070470000F87F10B591EA0C
:101DE000030F48BF83F000433FF55AAB841A71EBF1
:101DF000030C07D28CF0004C121943EB0C03001BB0
:101E000061EB0C014FEA1154A4EB135CDFF8A4E181
:101E10001EEA430F18BF9EEA445F00F0B48021EA37
:101E2000045123EA6E035242C3EB6E0338BF5B1EBC
:101E3000DCF1200E25D322FA0CFE10EB0E0043FA43
:101E40000CFE41EB0E01CCF1200E03FA0EFE10EB5E
:101E50000E00CCF1200E51F1000129D401EB045108
:101E600012FA0EF2BDE8104058BF7047401C1CBF6C
:101E7000B2F1004F704700280CBF491C20F0010050
:101E8000704712EB020E43EB030218BF4FF0010E36
:101E90004EEA4202ACF1200CDCF11E0E56D943FA98
:101EA0000CFE10EB0E00CCF11E0E51F1FF31D5D51A
:101EB0000EF1010E12FA0EFE404141EB010101EB61
:101EC000445C5FEA5C5C10D901EB045110EBDE70FE
:101ED00038BFBEF1004FBDE8104018BF7047002862
:101EE0000CBF491C20F00100704734D24FEAD42CBB
:101EF00024F4006411F500111BD0B1FA81F20B3A01
:101F0000A41AA41ED2F12003914030FA03F319431E
:101F1000904001EBCC7101EB0451002CBDE8104066
:101F2000A8BF704701F1C04101F000414FF000002F
:101F30007047B0FA80F310FA03F102D1BDE8104007
:101F40007047E41A173C4805C90AE2E701EB04515F
:101F5000BDE81040704749104FEA300001EB0451D2
:101F6000BDE8104002E04FF0000170474A0008BF92
:101F70000042F8D0B2F5001F28BF704701F00041C1
:101F80004FF0000070479EEA445F07D011EA5E0FF1
:101F9000BDE8104004BF002100207047BDE810409C
:101FA00070B5FFF7E1FD00BF40DFF63E104683F05D
:101FB000004170470000E0FF43004FEAD30C4FEAB6
:101FC0003C0C43401FBF40070CF1605113F0FE4F23
:101FD00070471CF0006F03D10CF0004100207047E7
:101FE0000CF0004343EA507040EACC0010B500F01A
:101FF00034F900BF000000924FEA0001FFF702BE73
:102000004FF00041A1F500214FF0000070470000A3
:1020100090EA010F48BF81F0004100F17081421A3F
:102020003CBF801A89184FEAD052A2EBD1534FF02F
:102030007F4C1CEA410F18BF9CEA026F00F03B8006
:102040004FF0004C4CEA00204CEA012121FA03FC3D
:1020500010EB0C0C1ED202F1FF325FEA1C2040EBA9
:10206000C25038BF70471CF07F0F4FEA400C18BFBA
:10207000BCF17F4F38BF7047C3F12003994008BFC0
:1020800020F00100BCF17F4F38BF7047A0F1C04085
:1020900000F029B94FEA3C00000A40EBC25028BFCB
:1020A0001CF0FF0F4FEA400CE6D018BFBCF17F4F89
:1020B00038BF7047EAE79CEA026F05D010EA5C0F70
:1020C00008BF00F00040704710B500F0C6F800BF30
:1020D00064FBBE3E10B5FFF7E9FB0CBF01200020FA
:1020E00010BD10B5FFF7E2FB14BF0120002010BDAA
:1020F00010B5FFF717FC8CBF0120002010BD10B5F4
:10210000FFF710FC2CBF0120002010BD10B5FFF719
:1021100045FC94BF0120002010BD10B5FFF73EFC28
:1021200034BF0120002010BD10F0004148BF4042E4
:10213000B0FA80F310FA03F2C3F19D030BD051EA19
:10214000C35101EB1220530638BF704700F1010064
:1021500008BF20F0010070474FF47F0C1CEAD0123A
:102160001EBF1CEAD11392EA0C0F93EA0C0F00F089
:10217000478090EA010F48BF42F480724FF0004C54
:102180004CEA00204CEA012102EB0302A0FB011300
:10219000A2F50002002918BF43F001035B0028BF2D
:1021A0004FEA330342EB22425FEA132C4CEBC2505E
:1021B0002EBFBCEB436FB2F57C0F70474FEA036C48
:1021C000BCF1004F08BF20F00100B2F57C0F38BF12
:1021D00070470BD582F0FF0212F5803FC8BF7047F1
:1021E00000F1C040D8BF00F00040704700F5000C7F
:1021F0005FEA4C0C48BF7047B0F1C04000F073B8C4
:102200000CEAD11390EA010F48BF42F48072624594
:1022100038BF634504D280EA010000F000407047F7
:1022200010B500F01AF800BF8900013E00F007B8B1
:1022300000F009B85FEA410C5FEA1C6C08D080EA44
:10224000010000F050B85FEA400C5FEA1C6CF6D168
:102250004FF00040A0F5800070470EF1020E2EF006
:10226000030E5EF8044B244204D44FEA4102B2F15B
:102270007F4F11D84FEA4003B3F17F4F0CD80ED1F6
:102280004FEAD07C0CEB4C0C0CF1020CB2F17F4FFE
:1022900008BF4CEBD17C04E04FF0080C01E04FEAA2
:1022A000D17C0CEB4C0324FA03F404F00704B4F1E2
:1022B000040C06D20EEB840CBDE810404CF0010C6F
:1022C0006047DFE80CF0070802024FF00040A0F57D
:1022D000800010BD0846420018BFD2F1807288BF4E
:1022E00000F0004010BDFF2141EAD050C00570470A
:1022F00090EA010F48BF81F000413FF590AE421ACD
:1023000004D882F00042A0EB020011444FEAD05200
:10231000A2EBD1534FF07F4C1CEA410F18BF9CEA4F
:10232000026F4AD04FF0004C4CEA00204CEA0121E9
:1023300021FA03FCB0EB0C0C0FD412F0FE0F36D0D8
:102340005FEA4C001DD5001240EBC25038BF704709
:102350001CF03F0F18BF70470BE05FEA1C20A2F192
:10236000010240EBC25038BF70471CF07F0F18BF0E
:102370007047C3F12003994014BF401E20F00100B4
:1023800070474FEA1223800808BF7047B0FA80FCFC
:10239000A2EB0C02CCF1280C60FA0CF093EA122F9D
:1023A00004BF00EBC25070474FEAC3707047130A76
:1023B0005FEADC1008BF7047F6E79CEA026F04D0C2
:1023C00010EA5C0F08BF0020704710B5FFF745FF0B
:1023D00040DFF63E81F00040704753544F502020BC
:1023E0000046414C4C45443F3A200053544154551B
:1023F000533A20003000310046414C4C4544004ED9
:102400004F524D414C0000001824000800000020ED
:08241000B006000054010008B1
:040000050800019955
:00000001FF
