:020000040800F2
:100000007806002099010008A1010008A30100085A
:10001000A5010008A7010008A901000800000000D0
:10002000000000000000000000000000AB0100081C
:10003000AD01000800000000AF010008B101000898
:10004000B3010008B3010008B3010008B3010008C0
:10005000B3010008B3010008B3010008550200080D
:10006000B3010008B3010008B3010008B3010008A0
:10007000B3010008B3010008B3010008B301000890
:10008000B3010008B3010008B3010008B301000880
:10009000B3010008B3010008B3010008B301000870
:1000A000B3010008B3010008B3010008B301000860
:1000B000B3010008B3010008B3010008B301000850
:1000C000B3010008B3010008B3010008B301000840
:1000D000B3010008B3010008B3010008B301000830
:1000E000B3010008B3010008B301000800F002F8F2
:1000F00000F042F814A696E8000CB244B344DA4586
:1001000001D100F039F8BAE80F000FA696E83000E8
:10011000A5EB040504EB0607AAEB0704A7F101070A
:100120004FEA15154FEA3414A4F10104AC4201D38F
:1001300000F022F813F0010F18BFFB1A43F001037F
:1001400000F001F8DBE718479C060000AC06000051
:10015000704700000023002400250026103A28BF25
:1001600078C1FBD8520728BF30C148BF0B60704729
:100170001FB51FBD10B510BD00F031F81146FFF7D7
:10018000F7FF00F0EFFA00F04FF803B4FFF7F2FFCB
:1001900003BC00F057F800000948804709480047B1
:1001A000FEE7FEE7FEE7FEE7FEE7FEE7FEE7FEE727
:1001B000FEE7FEE704480549054A064B7047000084
:1001C00089060008ED00000878000020780600206D
:1001D000780200207802002070477047704775460B
:1001E00000F02CF8AE4605006946534620F00700A3
:1001F000854618B020B5FFF7DDFFBDE820404FF081
:1002000000064FF000074FF000084FF0000BAC461F
:10021000ACE8C009ACE8C009ACE8C009ACE8C0096A
:1002200021F007018D46704710B50446AFF30080FA
:100230002046BDE81040FFF7A8BF00000048704707
:100240000000002001491820ABBEFEE72600020096
:100250007047000080B540F21440C4F2010000680D
:10026000800700281BD5FFE741F20C01C4F2010111
:10027000086880F40050086000F0D8F82C2000F0E6
:1002800097F8AA2000F0B0F800F0E4F840F214412A
:10029000C4F20101086840F002000860FFE780BD79
:1002A00080B582B041F21801C4F20201086840F042
:1002B0000400086040F60001C4F20101086820F063
:1002C000F0000860086840F0400008600821C4F2AF
:1002D0000101086820F0F000086040F20041C4F21B
:1002E0000101086840F00200086040F20C41C4F2CD
:1002F0000101086820F00200086040F20841C4F2E1
:100300000101086840F00200086007200190012107
:1003100000F006FA019800F0EBF902B080BD000091
:1003200041F21C01C4F20201086840F400100860A8
:1003300041F21801C4F20201086840F008000860A8
:1003400040F60042C4F20102106820F07F401060C5
:10035000106840F07F401060086840F001000860BD
:1003600045F20441C4F200012420088045F208410E
:10037000C4F20001088840F00600088045F21C41E4
:10038000C4F20001088800F470400880088840F03A
:10039000B400088045F20041C4F20001088840F032
:1003A00001000880088840F48060088070470000E1
:1003B00081B08DF803009DF8030045F21041C4F2AE
:1003C00000010880FFE745F21440C4F200000088F5
:1003D0008007002801D4FFE7F5E745F21840C4F292
:1003E0000000008801B0704781B08DF80300FFE77E
:1003F00045F21440C4F2000000880006002801D431
:10040000FFE7F5E79DF8030045F21041C4F2000153
:100410000880FFE745F21440C4F20000008840075E
:10042000002801D4FFE7F5E701B0704745F200412D
:10043000C4F20001088840F480700880FFE745F2AC
:100440001440C4F200000088C00708B9FFE7F6E7CF
:100450007047000045F20041C4F20001088840F4F2
:10046000007008807047000041F21801C4F20201D8
:10047000086840F01000086041F20401C4F2010174
:10048000086820F470000860086840F440100860B4
:100490007047000080B500F001F880BD84B00020F6
:1004A0000390029041F20001C4F20201086840F496
:1004B00080300860FFE741F20000C4F202000068EB
:1004C00000F400300290039801300390FFE7029996
:1004D0000020019039B9FFE70398B0F5A06018BF7C
:1004E00001200190FFE70198C0070028E3D1FFE752
:1004F00041F20000C4F2020000688003002803D526
:10050000FFE70120029002E000200290FFE702983E
:10051000012851D1FFE742F20001C4F2020108684C
:1005200040F010000860086820F0070008600868C4
:1005300040F00200086041F20401C4F2020100919F
:100540000868086008680860086840F4806008600F
:10055000086820F47C100860086840F4E81008601F
:1005600041F20001C4F20201086840F080700860A6
:10057000FFE741F20000C4F2020000688001002899
:1005800001D4FFE7F5E741F20401C4F20201086873
:1005900020F003000860086840F002000860FFE7F0
:1005A00041F20400C4F20200006800F00C000828C8
:1005B00001D0FFE7F4E700E0FFE704B07047000078
:1005C00081B041F20001C4F20201086840F48030B9
:1005D0000860FFE741F20000C4F2020000688003F7
:1005E000002801D4FFE7F5E741F20401C4F202015B
:1005F0000091086840F4E0100860086840F400408A
:100600000860086840F480600860086840F4803042
:10061000086041F20001C4F20201086840F08070F5
:100620000860FFE741F20000C4F2020000688001A8
:10063000002801D4FFE7F5E741F20401C4F202010A
:10064000086840F002000860FFE741F20400C4F2CD
:10065000020000680007002801D4FFE7F5E741F237
:100660000001C4F20201086820F001000860FFE701
:1006700041F20000C4F2020000688007002801D5A2
:10068000FFE7F5E701B0704780B541F20002C4F220
:100690000202106840F00100106041F20401C4F24F
:1006A000020108680023CFF6FF03184008601068B5
:1006B0004FF6FF73CFF6F66318401060106820F411
:1006C00080201060086820F4FE00086041F20801F4
:1006D000C4F202014FF41F000860FFF7DBFE4EF684
:1006E0000851CEF200014FF00060086080BD0000AC
:1006F00081B08DF803009DF9030000280ED4FFE7B8
:100700009DF9031001F01F02012090404A094EF2AA
:100710000011CEF2000141F82200FFE701B070475E
:1007200082B08DF8070000919DF9070000280AD4D7
:10073000FFE7009800019DF907104EF20042CEF24B
:10074000000288540BE0009800019DF8071001F0AA
:100750000F014EF61452CEF200028854FFE702B0A9
:100760007047000080B582B000200190FFF728FF9D
:10077000FFF77AFEFFF7D4FDFFF792FDFFE745F2A2
:100780001040C4F20000008840F26C01C2F2000187
:10079000086045F21C40C4F20000008840F260018D
:1007A000C2F20001086045F20040C4F20000008877
:1007B00040F26401C2F20001086045F20440C4F254
:1007C0000000008840F26801C2F20001086045F2B2
:1007D0000840C4F20000008840F27001C2F200013B
:1007E0000860CCE7F407000800000020780600004D
:0407F00054010008A8
:040000050800019955
:00000001FF
